{
    "contractName": "RoundsManager",
    "abi": [
        {
            "constant": false,
            "inputs": [
                {
                    "name": "_roundLockAmount",
                    "type": "uint256"
                }
            ],
            "name": "setRoundLockAmount",
            "outputs": [],
            "payable": false,
            "stateMutability": "nonpayable",
            "type": "function"
        },
        {
            "constant": true,
            "inputs": [],
            "name": "lastRoundLengthUpdateRound",
            "outputs": [
                {
                    "name": "",
                    "type": "uint256"
                }
            ],
            "payable": false,
            "stateMutability": "view",
            "type": "function"
        },
        {
            "constant": true,
            "inputs": [],
            "name": "currentRoundInitialized",
            "outputs": [
                {
                    "name": "",
                    "type": "bool"
                }
            ],
            "payable": false,
            "stateMutability": "view",
            "type": "function"
        },
        {
            "constant": true,
            "inputs": [],
            "name": "targetContractId",
            "outputs": [
                {
                    "name": "",
                    "type": "bytes32"
                }
            ],
            "payable": false,
            "stateMutability": "view",
            "type": "function"
        },
        {
            "constant": true,
            "inputs": [],
            "name": "lastRoundLengthUpdateStartBlock",
            "outputs": [
                {
                    "name": "",
                    "type": "uint256"
                }
            ],
            "payable": false,
            "stateMutability": "view",
            "type": "function"
        },
        {
            "constant": false,
            "inputs": [
                {
                    "name": "_roundLength",
                    "type": "uint256"
                }
            ],
            "name": "setRoundLength",
            "outputs": [],
            "payable": false,
            "stateMutability": "nonpayable",
            "type": "function"
        },
        {
            "constant": true,
            "inputs": [],
            "name": "currentRoundLocked",
            "outputs": [
                {
                    "name": "",
                    "type": "bool"
                }
            ],
            "payable": false,
            "stateMutability": "view",
            "type": "function"
        },
        {
            "constant": true,
            "inputs": [
                {
                    "name": "_block",
                    "type": "uint256"
                }
            ],
            "name": "blockHash",
            "outputs": [
                {
                    "name": "",
                    "type": "bytes32"
                }
            ],
            "payable": false,
            "stateMutability": "view",
            "type": "function"
        },
        {
            "constant": true,
            "inputs": [],
            "name": "lastInitializedRound",
            "outputs": [
                {
                    "name": "",
                    "type": "uint256"
                }
            ],
            "payable": false,
            "stateMutability": "view",
            "type": "function"
        },
        {
            "constant": true,
            "inputs": [],
            "name": "currentRound",
            "outputs": [
                {
                    "name": "",
                    "type": "uint256"
                }
            ],
            "payable": false,
            "stateMutability": "view",
            "type": "function"
        },
        {
            "constant": true,
            "inputs": [],
            "name": "blockNum",
            "outputs": [
                {
                    "name": "",
                    "type": "uint256"
                }
            ],
            "payable": false,
            "stateMutability": "view",
            "type": "function"
        },
        {
            "constant": true,
            "inputs": [],
            "name": "roundLength",
            "outputs": [
                {
                    "name": "",
                    "type": "uint256"
                }
            ],
            "payable": false,
            "stateMutability": "view",
            "type": "function"
        },
        {
            "constant": true,
            "inputs": [],
            "name": "currentRoundStartBlock",
            "outputs": [
                {
                    "name": "",
                    "type": "uint256"
                }
            ],
            "payable": false,
            "stateMutability": "view",
            "type": "function"
        },
        {
            "constant": false,
            "inputs": [
                {
                    "name": "_controller",
                    "type": "address"
                }
            ],
            "name": "setController",
            "outputs": [],
            "payable": false,
            "stateMutability": "nonpayable",
            "type": "function"
        },
        {
            "constant": false,
            "inputs": [],
            "name": "initializeRound",
            "outputs": [],
            "payable": false,
            "stateMutability": "nonpayable",
            "type": "function"
        },
        {
            "constant": true,
            "inputs": [],
            "name": "roundLockAmount",
            "outputs": [
                {
                    "name": "",
                    "type": "uint256"
                }
            ],
            "payable": false,
            "stateMutability": "view",
            "type": "function"
        },
        {
            "constant": true,
            "inputs": [],
            "name": "controller",
            "outputs": [
                {
                    "name": "",
                    "type": "address"
                }
            ],
            "payable": false,
            "stateMutability": "view",
            "type": "function"
        },
        {
            "inputs": [
                {
                    "name": "_controller",
                    "type": "address"
                }
            ],
            "payable": false,
            "stateMutability": "nonpayable",
            "type": "constructor"
        },
        {
            "anonymous": false,
            "inputs": [
                {
                    "indexed": false,
                    "name": "round",
                    "type": "uint256"
                }
            ],
            "name": "NewRound",
            "type": "event"
        },
        {
            "anonymous": false,
            "inputs": [
                {
                    "indexed": false,
                    "name": "controller",
                    "type": "address"
                }
            ],
            "name": "SetController",
            "type": "event"
        },
        {
            "anonymous": false,
            "inputs": [
                {
                    "indexed": false,
                    "name": "param",
                    "type": "string"
                }
            ],
            "name": "ParameterUpdate",
            "type": "event"
        }
    ],
    "bytecode": "0x6060604052341561000f57600080fd5b604051602080610a388339810160405280805160008054600160a060020a03909216600160a060020a031990921691909117905550506109e4806100546000396000f3006060604052600436106100d75763ffffffff60e060020a6000350416630b1573b881146100dc5780630fe1dfa8146100f4578063219bc76c1461011957806351720b4114610140578063668abff714610153578063681312f5146101665780636841f2531461017c57806385df51fd1461018f5780638807f36e146101a55780638a19c8bc146101b85780638ae63d6d146101cb5780638b649b94146101de5780638fa148f2146101f157806392eefe9b14610204578063d4807fb214610223578063f5b490d514610236578063f77c479114610249575b600080fd5b34156100e757600080fd5b6100f2600435610278565b005b34156100ff57600080fd5b61010761037c565b60405190815260200160405180910390f35b341561012457600080fd5b61012c610382565b604051901515815260200160405180910390f35b341561014b57600080fd5b610107610395565b341561015e57600080fd5b61010761039b565b341561017157600080fd5b6100f26004356103a1565b341561018757600080fd5b61012c6104de565b341561019a57600080fd5b61010760043561052c565b34156101b057600080fd5b61010761056a565b34156101c357600080fd5b610107610570565b34156101d657600080fd5b6101076105af565b34156101e957600080fd5b6101076105b3565b34156101fc57600080fd5b6101076105b9565b341561020f57600080fd5b6100f2600160a060020a03600435166105f9565b341561022e57600080fd5b6100f261067c565b341561024157600080fd5b6101076107ee565b341561025457600080fd5b61025c6107f4565b604051600160a060020a03909116815260200160405180910390f35b60008054600160a060020a031690638da5cb5b90604051602001526040518163ffffffff1660e060020a028152600401602060405180830381600087803b15156102c157600080fd5b6102c65a03f115156102d257600080fd5b50505060405180519050600160a060020a031633600160a060020a03161415156102fb57600080fd5b61030481610803565b151561030f57600080fd5b60038190557f9f5033568d78ae30f29f01e944f97b2216493bd19d1b46d429673acff3dcd6746040516020808252600f908201527f726f756e644c6f636b416d6f756e7400000000000000000000000000000000006040808301919091526060909101905180910390a150565b60055481565b600061038c610570565b60045414905090565b60015481565b60065481565b60008054600160a060020a031690638da5cb5b90604051602001526040518163ffffffff1660e060020a028152600401602060405180830381600087803b15156103ea57600080fd5b6102c65a03f115156103fb57600080fd5b50505060405180519050600160a060020a031633600160a060020a031614151561042457600080fd5b6000811161043157600080fd5b600254151561045a576002819055610447610570565b6005556104526105b9565b600655610476565b610462610570565b60055561046d6105b9565b60065560028190555b7f9f5033568d78ae30f29f01e944f97b2216493bd19d1b46d429673acff3dcd6746040516020808252600b908201527f726f756e644c656e6774680000000000000000000000000000000000000000006040808301919091526060909101905180910390a150565b6000806104ef60025460035461080d565b600254909150610505908263ffffffff61082d16565b6105246105106105b9565b6105186105af565b9063ffffffff61082d16565b101591505090565b6000806105376105af565b905080831061054557600080fd5b610100811080610559575061010081038310155b151561056457600080fd5b50504090565b60045481565b6000806105936002546105876006546105186105af565b9063ffffffff61083f16565b6005549091506105a9908263ffffffff61085b16565b91505090565b4390565b60025481565b6000806105d06002546105876006546105186105af565b90506105a96105ea6002548361086a90919063ffffffff16565b6006549063ffffffff61085b16565b60005433600160a060020a0390811691161461061457600080fd5b6000805473ffffffffffffffffffffffffffffffffffffffff1916600160a060020a0383161790557f4ff638452bbf33c012645d18ae6f05515ff5f2d1dfb0cece8cbf018c60903f7081604051600160a060020a03909116815260200160405180910390a150565b60008054600160a060020a0316635c975abb82604051602001526040518163ffffffff1660e060020a028152600401602060405180830381600087803b15156106c457600080fd5b6102c65a03f115156106d557600080fd5b50505060405180511590506106e957600080fd5b6106f1610570565b90508060045410151561070357600080fd5b6004819055610710610895565b600160a060020a031663242ed69f6040518163ffffffff1660e060020a028152600401600060405180830381600087803b151561074c57600080fd5b6102c65a03f1151561075d57600080fd5b505050610768610936565b600160a060020a031663ece2064c6040518163ffffffff1660e060020a028152600401600060405180830381600087803b15156107a457600080fd5b6102c65a03f115156107b557600080fd5b5050507fa2b5357eea32aeb35142ba36b087f9fe674f34f8b57ce94d30e9f4f572195bcf8160405190815260200160405180910390a150565b60035481565b600054600160a060020a031681565b620f424090111590565b6000610826620f4240610587858563ffffffff61086a16565b9392505050565b60008282111561083957fe5b50900390565b600080828481151561084d57fe5b0490508091505b5092915050565b60008282018381101561082657fe5b60008083151561087d5760009150610854565b5082820282848281151561088d57fe5b041461082657fe5b60008054600160a060020a031663e16c7d986040517f426f6e64696e674d616e616765720000000000000000000000000000000000008152600e01604051809103902060006040516020015260405160e060020a63ffffffff84160281526004810191909152602401602060405180830381600087803b151561091757600080fd5b6102c65a03f1151561092857600080fd5b505050604051805191505090565b60008054600160a060020a031663e16c7d986040517f4d696e74657200000000000000000000000000000000000000000000000000008152600601604051809103902060006040516020015260405160e060020a63ffffffff84160281526004810191909152602401602060405180830381600087803b151561091757600080fd00a165627a7a723058205cd932d5374894ef0eb0e56843477e6a32c343c0dc2f2aa77f3c83a60fec361d0029",
    "source": "pragma solidity ^0.4.17;\n\nimport \"../ManagerProxyTarget.sol\";\nimport \"./IRoundsManager.sol\";\nimport \"../bonding/IBondingManager.sol\";\nimport \"../token/IMinter.sol\";\nimport \"../libraries/MathUtils.sol\";\n\nimport \"zeppelin-solidity/contracts/math/SafeMath.sol\";\n\n\n/**\n * @title RoundsManager\n * @dev Manages round progression and other blockchain time related operations of the Livepeer protocol\n */\ncontract RoundsManager is ManagerProxyTarget, IRoundsManager {\n    using SafeMath for uint256;\n\n    // Round length in blocks\n    uint256 public roundLength;\n    // Lock period of a round as a % of round length\n    // Transcoders cannot join the transcoder pool or change their rates during the lock period at the end of a round\n    // The lock period provides delegators time to review transcoder information without changes\n    // # of blocks in the lock period = (roundLength * roundLockAmount) / PERC_DIVISOR\n    uint256 public roundLockAmount;\n    // Last initialized round. After first round, this is the last round during which initializeRound() was called\n    uint256 public lastInitializedRound;\n    // Round in which roundLength was last updated\n    uint256 public lastRoundLengthUpdateRound;\n    // Start block of the round in which roundLength was last updated\n    uint256 public lastRoundLengthUpdateStartBlock;\n\n    /**\n     * @dev RoundsManager constructor. Only invokes constructor of base Manager contract with provided Controller address\n     * @param _controller Address of Controller that this contract will be registered with\n     */\n    function RoundsManager(address _controller) public Manager(_controller) {}\n\n    /**\n     * @dev Set round length. Only callable by the controller owner\n     * @param _roundLength Round length in blocks\n     */\n    function setRoundLength(uint256 _roundLength) external onlyControllerOwner {\n        // Round length cannot be 0\n        require(_roundLength > 0);\n\n        if (roundLength == 0) {\n            // If first time initializing roundLength, set roundLength before\n            // lastRoundLengthUpdateRound and lastRoundLengthUpdateStartBlock\n            roundLength = _roundLength;\n            lastRoundLengthUpdateRound = currentRound();\n            lastRoundLengthUpdateStartBlock = currentRoundStartBlock();\n        } else {\n            // If updating roundLength, set roundLength after\n            // lastRoundLengthUpdateRound and lastRoundLengthUpdateStartBlock\n            lastRoundLengthUpdateRound = currentRound();\n            lastRoundLengthUpdateStartBlock = currentRoundStartBlock();\n            roundLength = _roundLength;\n        }\n\n        ParameterUpdate(\"roundLength\");\n    }\n\n    /**\n     * @dev Set round lock amount. Only callable by the controller owner\n     * @param _roundLockAmount Round lock amount as a % of the number of blocks in a round\n     */\n    function setRoundLockAmount(uint256 _roundLockAmount) external onlyControllerOwner {\n        // Must be a valid percentage\n        require(MathUtils.validPerc(_roundLockAmount));\n\n        roundLockAmount = _roundLockAmount;\n\n        ParameterUpdate(\"roundLockAmount\");\n    }\n\n    /**\n     * @dev Initialize the current round. Called once at the start of any round\n     */\n    function initializeRound() external whenSystemNotPaused {\n        uint256 currRound = currentRound();\n\n        // Check if already called for the current round\n        require(lastInitializedRound < currRound);\n\n        // Set current round as initialized\n        lastInitializedRound = currRound;\n        // Set active transcoders for the round\n        bondingManager().setActiveTranscoders();\n        // Set mintable rewards for the round\n        minter().setCurrentRewardTokens();\n\n        NewRound(currRound);\n    }\n\n    /**\n     * @dev Return current block number\n     */\n    function blockNum() public view returns (uint256) {\n        return block.number;\n    }\n\n    /**\n     * @dev Return blockhash for a block\n     */\n    function blockHash(uint256 _block) public view returns (bytes32) {\n        uint256 currentBlock = blockNum();\n        // Can only retrieve past block hashes\n        require(_block < currentBlock);\n        // Can only retrieve hashes for last 256 blocks\n        require(currentBlock < 256 || _block >= currentBlock - 256);\n\n        return block.blockhash(_block);\n    }\n\n    /**\n     * @dev Return current round\n     */\n    function currentRound() public view returns (uint256) {\n        // Compute # of rounds since roundLength was last updated\n        uint256 roundsSinceUpdate = blockNum().sub(lastRoundLengthUpdateStartBlock).div(roundLength);\n        // Current round = round that roundLength was last updated + # of rounds since roundLength was last updated\n        return lastRoundLengthUpdateRound.add(roundsSinceUpdate);\n    }\n\n    /**\n     * @dev Return start block of current round\n     */\n    function currentRoundStartBlock() public view returns (uint256) {\n        // Compute # of rounds since roundLength was last updated\n        uint256 roundsSinceUpdate = blockNum().sub(lastRoundLengthUpdateStartBlock).div(roundLength);\n        // Current round start block = start block of round that roundLength was last updated + (# of rounds since roundLenght was last updated * roundLength)\n        return lastRoundLengthUpdateStartBlock.add(roundsSinceUpdate.mul(roundLength));\n    }\n\n    /**\n     * @dev Check if current round is initialized\n     */\n    function currentRoundInitialized() public view returns (bool) {\n        return lastInitializedRound == currentRound();\n    }\n\n    /**\n     * @dev Check if we are in the lock period of the current round\n     */\n    function currentRoundLocked() public view returns (bool) {\n        uint256 lockedBlocks = MathUtils.percOf(roundLength, roundLockAmount);\n        return blockNum().sub(currentRoundStartBlock()) >= roundLength.sub(lockedBlocks);\n    }\n\n    /**\n     * @dev Return BondingManager interface\n     */\n    function bondingManager() internal view returns (IBondingManager) {\n        return IBondingManager(controller.getContract(keccak256(\"BondingManager\")));\n    }\n\n    /**\n     * @dev Return Minter interface\n     */\n    function minter() internal view returns (IMinter) {\n        return IMinter(controller.getContract(keccak256(\"Minter\")));\n    }\n}\n",
    "sourcePath": "/home/vagrant/src/protocol/contracts/rounds/RoundsManager.sol",
    "compiler": {
        "name": "solc",
        "version": "0.4.18+commit.9cf6e910.Emscripten.clang"
    },
    "schemaVersion": "1.0.1",
    "updatedAt": "2018-03-28T20:05:16.841Z"
}